{
  "contractName": "GemstoneSelecting",
  "abi": [
    {
      "anonymous": false,
      "inputs": [
        {
          "indexed": false,
          "internalType": "uint256",
          "name": "id",
          "type": "uint256"
        },
        {
          "indexed": false,
          "internalType": "uint256",
          "name": "minedGemId",
          "type": "uint256"
        },
        {
          "indexed": false,
          "internalType": "uint256",
          "name": "height",
          "type": "uint256"
        },
        {
          "indexed": false,
          "internalType": "uint256",
          "name": "width",
          "type": "uint256"
        },
        {
          "indexed": false,
          "internalType": "uint256",
          "name": "thickness",
          "type": "uint256"
        },
        {
          "indexed": false,
          "internalType": "uint256",
          "name": "carat",
          "type": "uint256"
        },
        {
          "indexed": false,
          "internalType": "string",
          "name": "color",
          "type": "string"
        },
        {
          "indexed": false,
          "internalType": "string",
          "name": "gemType",
          "type": "string"
        },
        {
          "indexed": false,
          "internalType": "uint256",
          "name": "price",
          "type": "uint256"
        },
        {
          "indexed": false,
          "internalType": "address",
          "name": "owner",
          "type": "address"
        }
      ],
      "name": "GemSelecting",
      "type": "event"
    },
    {
      "constant": true,
      "inputs": [],
      "name": "selectedGemCount",
      "outputs": [
        {
          "internalType": "uint256",
          "name": "",
          "type": "uint256"
        }
      ],
      "payable": false,
      "stateMutability": "view",
      "type": "function"
    },
    {
      "constant": true,
      "inputs": [
        {
          "internalType": "uint256",
          "name": "",
          "type": "uint256"
        }
      ],
      "name": "selectedGems",
      "outputs": [
        {
          "internalType": "uint256",
          "name": "id",
          "type": "uint256"
        },
        {
          "internalType": "uint256",
          "name": "minedGemId",
          "type": "uint256"
        },
        {
          "internalType": "uint256",
          "name": "height",
          "type": "uint256"
        },
        {
          "internalType": "uint256",
          "name": "width",
          "type": "uint256"
        },
        {
          "internalType": "uint256",
          "name": "thickness",
          "type": "uint256"
        },
        {
          "internalType": "uint256",
          "name": "carat",
          "type": "uint256"
        },
        {
          "internalType": "string",
          "name": "color",
          "type": "string"
        },
        {
          "internalType": "string",
          "name": "gemType",
          "type": "string"
        },
        {
          "internalType": "uint256",
          "name": "price",
          "type": "uint256"
        },
        {
          "internalType": "address",
          "name": "owner",
          "type": "address"
        }
      ],
      "payable": false,
      "stateMutability": "view",
      "type": "function"
    },
    {
      "constant": false,
      "inputs": [
        {
          "internalType": "uint256",
          "name": "_minedGemId",
          "type": "uint256"
        },
        {
          "internalType": "uint256",
          "name": "_height",
          "type": "uint256"
        },
        {
          "internalType": "uint256",
          "name": "_width",
          "type": "uint256"
        },
        {
          "internalType": "uint256",
          "name": "_thickness",
          "type": "uint256"
        },
        {
          "internalType": "uint256",
          "name": "_carat",
          "type": "uint256"
        },
        {
          "internalType": "string",
          "name": "_color",
          "type": "string"
        },
        {
          "internalType": "string",
          "name": "_gemtype",
          "type": "string"
        },
        {
          "internalType": "uint256",
          "name": "_price",
          "type": "uint256"
        }
      ],
      "name": "gemSelecting",
      "outputs": [],
      "payable": false,
      "stateMutability": "nonpayable",
      "type": "function"
    }
  ],
  "bytecode": "0x60806040526000805534801561001457600080fd5b506108be806100246000396000f3fe608060405234801561001057600080fd5b50600436106100415760003560e01c80633f640880146100465780635f801c7a146101d5578063cee07c4b146101f3575b600080fd5b6101d3600480360361010081101561005d57600080fd5b810190808035906020019092919080359060200190929190803590602001909291908035906020019092919080359060200190929190803590602001906401000000008111156100ac57600080fd5b8201836020820111156100be57600080fd5b803590602001918460018302840111640100000000831117156100e057600080fd5b91908080601f016020809104026020016040519081016040528093929190818152602001838380828437600081840152601f19601f8201169050808301925050505050505091929192908035906020019064010000000081111561014357600080fd5b82018360208201111561015557600080fd5b8035906020019184600183028401116401000000008311171561017757600080fd5b91908080601f016020809104026020016040519081016040528093929190818152602001838380828437600081840152601f19601f8201169050808301925050505050505091929192908035906020019092919050505061036a565b005b6101dd61063a565b6040518082815260200191505060405180910390f35b61021f6004803603602081101561020957600080fd5b8101908080359060200190929190505050610640565b604051808b81526020018a815260200189815260200188815260200187815260200186815260200180602001806020018581526020018473ffffffffffffffffffffffffffffffffffffffff1673ffffffffffffffffffffffffffffffffffffffff168152602001838103835287818151815260200191508051906020019080838360005b838110156102bf5780820151818401526020810190506102a4565b50505050905090810190601f1680156102ec5780820380516001836020036101000a031916815260200191505b50838103825286818151815260200191508051906020019080838360005b8381101561032557808201518184015260208101905061030a565b50505050905090810190601f1680156103525780820380516001836020036101000a031916815260200191505b509c5050505050505050505050505060405180910390f35b600080815480929190600101919050555060405180610140016040528060005481526020018981526020018881526020018781526020018681526020018581526020018481526020018381526020018281526020013373ffffffffffffffffffffffffffffffffffffffff168152506001600080548152602001908152602001600020600082015181600001556020820151816001015560408201518160020155606082015181600301556080820151816004015560a0820151816005015560c08201518160060190805190602001906104459291906107e4565b5060e08201518160070190805190602001906104629291906107e4565b5061010082015181600801556101208201518160090160006101000a81548173ffffffffffffffffffffffffffffffffffffffff021916908373ffffffffffffffffffffffffffffffffffffffff1602179055509050507f0c325357d5d077ccb450cf088a2bf3f6692a5844f2187cf65280316564b40365600054898989898989898933604051808b81526020018a815260200189815260200188815260200187815260200186815260200180602001806020018581526020018473ffffffffffffffffffffffffffffffffffffffff1673ffffffffffffffffffffffffffffffffffffffff168152602001838103835287818151815260200191508051906020019080838360005b8381101561058657808201518184015260208101905061056b565b50505050905090810190601f1680156105b35780820380516001836020036101000a031916815260200191505b50838103825286818151815260200191508051906020019080838360005b838110156105ec5780820151818401526020810190506105d1565b50505050905090810190601f1680156106195780820380516001836020036101000a031916815260200191505b509c5050505050505050505050505060405180910390a15050505050505050565b60005481565b6001602052806000526040600020600091509050806000015490806001015490806002015490806003015490806004015490806005015490806006018054600181600116156101000203166002900480601f0160208091040260200160405190810160405280929190818152602001828054600181600116156101000203166002900480156107105780601f106106e557610100808354040283529160200191610710565b820191906000526020600020905b8154815290600101906020018083116106f357829003601f168201915b505050505090806007018054600181600116156101000203166002900480601f0160208091040260200160405190810160405280929190818152602001828054600181600116156101000203166002900480156107ae5780601f10610783576101008083540402835291602001916107ae565b820191906000526020600020905b81548152906001019060200180831161079157829003601f168201915b5050505050908060080154908060090160009054906101000a900473ffffffffffffffffffffffffffffffffffffffff1690508a565b828054600181600116156101000203166002900490600052602060002090601f016020900481019282601f1061082557805160ff1916838001178555610853565b82800160010185558215610853579182015b82811115610852578251825591602001919060010190610837565b5b5090506108609190610864565b5090565b61088691905b8082111561088257600081600090555060010161086a565b5090565b9056fea265627a7a72315820bf4f4ff32918cc5d5cf070050580e5d911eb916d7762136921c816a5c0e1208e64736f6c63430005100032",
  "source": "pragma solidity >=0.4.21 <0.6.0;\n\ncontract GemstoneSelecting {\n    \n    uint public selectedGemCount = 0;\n    mapping (uint => SelectedGem) public selectedGems;\n\n    struct SelectedGem{\n        uint id;\n        uint minedGemId;\n        uint height;\n        uint width;\n        uint thickness; //vastagsag\n        uint carat; //==weight A karát a drágakövek tömegének mérésére szolgáló mértékegység. Jele: Kt, angolszász területen ct.\n        string color;\n        string gemType; //etc gyémánt, rubint, gránit\n        uint price;\n        address owner;\n    }\n\n     event GemSelecting(\n        uint id,\n        uint minedGemId,\n        uint height,\n        uint width,\n        uint thickness,\n        uint carat,\n        string color,\n        string gemType,\n        uint price,\n        address owner\n     );\n\n        // a minedGemId majd a js-sel kerül át. Kattintás után\n      function gemSelecting(uint _minedGemId, uint _height, uint _width, uint _thickness, uint _carat, string memory _color, string memory _gemtype, uint _price) public {\n       selectedGemCount++;\n\n       selectedGems[selectedGemCount] = SelectedGem(selectedGemCount, _minedGemId, _height, _width, _thickness, _carat, _color, _gemtype, _price, msg.sender);\n\n       emit GemSelecting(selectedGemCount, _minedGemId, _height, _width, _thickness, _carat, _color, _gemtype, _price, msg.sender);\n    }\n\n//innen úgy kellene tovább menni, hogy kiválogatva ki lesz.\n// az itt felvitt adatokkal látszik, hogy feldolgozatlan gyémánt/ rubint/etc\n//utána két külön .sol-ban kezelni a gyémántot és a többi drágakövet. (könyvjelzőből drágakőpiac, gyéméntpiac) adataival\n//a vágást azokkal a .sol-okkal menti el\n//utána a csiszolás, utána a polirozas\n//tanusitvány kiadása???\n//ékszerész veszi meg -> ékszertervezés\n//befejezés , felületkezelés\n//minőségellenőrzés \n}\n",
  "sourcePath": "/home/berkeanna/folder/two/jewellery/src/contracts/GemstoneSelecting.sol",
  "compiler": {
    "name": "solc",
    "version": "0.5.16+commit.9c3226ce.Emscripten.clang"
  },
  "schemaVersion": "3.4.16",
  "updatedAt": "2023-11-06T12:10:46.084Z",
  "networkType": "ethereum",
  "devdoc": {
    "methods": {}
  },
  "userdoc": {
    "methods": {}
  }
}