{
  "contractName": "GemstoneExtraction",
  "abi": [
    {
      "inputs": [],
      "payable": false,
      "stateMutability": "nonpayable",
      "type": "constructor"
    },
    {
      "anonymous": false,
      "inputs": [
        {
          "indexed": false,
          "internalType": "uint256",
          "name": "id",
          "type": "uint256"
        },
        {
          "indexed": false,
          "internalType": "string",
          "name": "gemType",
          "type": "string"
        },
        {
          "indexed": false,
          "internalType": "uint256",
          "name": "price",
          "type": "uint256"
        },
        {
          "indexed": false,
          "internalType": "string",
          "name": "miningLocation",
          "type": "string"
        },
        {
          "indexed": false,
          "internalType": "string",
          "name": "extractionMethod",
          "type": "string"
        },
        {
          "indexed": false,
          "internalType": "address payable",
          "name": "owner",
          "type": "address"
        },
        {
          "indexed": false,
          "internalType": "bool",
          "name": "purchased",
          "type": "bool"
        }
      ],
      "name": "GemMining",
      "type": "event"
    },
    {
      "anonymous": false,
      "inputs": [
        {
          "indexed": false,
          "internalType": "uint256",
          "name": "id",
          "type": "uint256"
        },
        {
          "indexed": false,
          "internalType": "string",
          "name": "gemType",
          "type": "string"
        },
        {
          "indexed": false,
          "internalType": "uint256",
          "name": "price",
          "type": "uint256"
        },
        {
          "indexed": false,
          "internalType": "string",
          "name": "miningLocation",
          "type": "string"
        },
        {
          "indexed": false,
          "internalType": "string",
          "name": "extractionMethod",
          "type": "string"
        },
        {
          "indexed": false,
          "internalType": "address payable",
          "name": "owner",
          "type": "address"
        },
        {
          "indexed": false,
          "internalType": "bool",
          "name": "purchased",
          "type": "bool"
        }
      ],
      "name": "GemPurchased",
      "type": "event"
    },
    {
      "constant": true,
      "inputs": [],
      "name": "mineName",
      "outputs": [
        {
          "internalType": "string",
          "name": "",
          "type": "string"
        }
      ],
      "payable": false,
      "stateMutability": "view",
      "type": "function"
    },
    {
      "constant": true,
      "inputs": [],
      "name": "minedGemCount",
      "outputs": [
        {
          "internalType": "uint256",
          "name": "",
          "type": "uint256"
        }
      ],
      "payable": false,
      "stateMutability": "view",
      "type": "function"
    },
    {
      "constant": true,
      "inputs": [
        {
          "internalType": "uint256",
          "name": "",
          "type": "uint256"
        }
      ],
      "name": "minedGems",
      "outputs": [
        {
          "internalType": "uint256",
          "name": "id",
          "type": "uint256"
        },
        {
          "internalType": "string",
          "name": "gemType",
          "type": "string"
        },
        {
          "internalType": "uint256",
          "name": "price",
          "type": "uint256"
        },
        {
          "internalType": "string",
          "name": "miningLocation",
          "type": "string"
        },
        {
          "internalType": "string",
          "name": "extractionMethod",
          "type": "string"
        },
        {
          "internalType": "address payable",
          "name": "owner",
          "type": "address"
        },
        {
          "internalType": "bool",
          "name": "purchased",
          "type": "bool"
        }
      ],
      "payable": false,
      "stateMutability": "view",
      "type": "function"
    },
    {
      "constant": false,
      "inputs": [
        {
          "internalType": "string",
          "name": "_gemType",
          "type": "string"
        },
        {
          "internalType": "uint256",
          "name": "_price",
          "type": "uint256"
        },
        {
          "internalType": "string",
          "name": "_miningLocation",
          "type": "string"
        },
        {
          "internalType": "string",
          "name": "_extractionMethod",
          "type": "string"
        }
      ],
      "name": "gemMining",
      "outputs": [],
      "payable": false,
      "stateMutability": "nonpayable",
      "type": "function"
    },
    {
      "constant": false,
      "inputs": [
        {
          "internalType": "uint256",
          "name": "_id",
          "type": "uint256"
        }
      ],
      "name": "purchaseGem",
      "outputs": [],
      "payable": true,
      "stateMutability": "payable",
      "type": "function"
    }
  ],
  "bytecode": "0x608060405260006001553480156200001657600080fd5b506040518060400160405280600781526020017f616672696b61690000000000000000000000000000000000000000000000000081525060009080519060200190620000649291906200006b565b506200011a565b828054600181600116156101000203166002900490600052602060002090601f016020900481019282601f10620000ae57805160ff1916838001178555620000df565b82800160010185558215620000df579182015b82811115620000de578251825591602001919060010190620000c1565b5b509050620000ee9190620000f2565b5090565b6200011791905b8082111562000113576000816000905550600101620000f9565b5090565b90565b6112dd806200012a6000396000f3fe60806040526004361061004a5760003560e01c80630733a8cc1461004f5780631e166c4e1461024f5780639b8efcd914610427578063c8a9421514610455578063d0cfe11e146104e5575b600080fd5b34801561005b57600080fd5b5061024d6004803603608081101561007257600080fd5b810190808035906020019064010000000081111561008f57600080fd5b8201836020820111156100a157600080fd5b803590602001918460018302840111640100000000831117156100c357600080fd5b91908080601f016020809104026020016040519081016040528093929190818152602001838380828437600081840152601f19601f820116905080830192505050505050509192919290803590602001909291908035906020019064010000000081111561013057600080fd5b82018360208201111561014257600080fd5b8035906020019184600183028401116401000000008311171561016457600080fd5b91908080601f016020809104026020016040519081016040528093929190818152602001838380828437600081840152601f19601f820116905080830192505050505050509192919290803590602001906401000000008111156101c757600080fd5b8201836020820111156101d957600080fd5b803590602001918460018302840111640100000000831117156101fb57600080fd5b91908080601f016020809104026020016040519081016040528093929190818152602001838380828437600081840152601f19601f820116905080830192505050505050509192919290505050610510565b005b34801561025b57600080fd5b506102886004803603602081101561027257600080fd5b8101908080359060200190929190505050610864565b604051808881526020018060200187815260200180602001806020018673ffffffffffffffffffffffffffffffffffffffff1673ffffffffffffffffffffffffffffffffffffffff1681526020018515151515815260200184810384528a818151815260200191508051906020019080838360005b838110156103185780820151818401526020810190506102fd565b50505050905090810190601f1680156103455780820380516001836020036101000a031916815260200191505b50848103835288818151815260200191508051906020019080838360005b8381101561037e578082015181840152602081019050610363565b50505050905090810190601f1680156103ab5780820380516001836020036101000a031916815260200191505b50848103825287818151815260200191508051906020019080838360005b838110156103e45780820151818401526020810190506103c9565b50505050905090810190601f1680156104115780820380516001836020036101000a031916815260200191505b509a505050505050505050505060405180910390f35b6104536004803603602081101561043d57600080fd5b8101908080359060200190929190505050610a9b565b005b34801561046157600080fd5b5061046a61110a565b6040518080602001828103825283818151815260200191508051906020019080838360005b838110156104aa57808201518184015260208101905061048f565b50505050905090810190601f1680156104d75780820380516001836020036101000a031916815260200191505b509250505060405180910390f35b3480156104f157600080fd5b506104fa6111a8565b6040518082815260200191505060405180910390f35b60016000815480929190600101919050555060606040518060400160405280600481526020017f6d696e650000000000000000000000000000000000000000000000000000000081525090506040518060e0016040528060015481526020018681526020018581526020018481526020018381526020013373ffffffffffffffffffffffffffffffffffffffff168152602001600015158152506002600060015481526020019081526020016000206000820151816000015560208201518160010190805190602001906105e59291906111ae565b5060408201518160020155606082015181600301908051906020019061060c9291906111ae565b5060808201518160040190805190602001906106299291906111ae565b5060a08201518160050160006101000a81548173ffffffffffffffffffffffffffffffffffffffff021916908373ffffffffffffffffffffffffffffffffffffffff16021790555060c08201518160050160146101000a81548160ff0219169083151502179055509050507fff7df96dd45a59f301033ded1a3f8acf38a4ffad50a67863ea5ba37a47698f9360015486868686336000604051808881526020018060200187815260200180602001806020018673ffffffffffffffffffffffffffffffffffffffff1673ffffffffffffffffffffffffffffffffffffffff1681526020018515151515815260200184810384528a818151815260200191508051906020019080838360005b8381101561074f578082015181840152602081019050610734565b50505050905090810190601f16801561077c5780820380516001836020036101000a031916815260200191505b50848103835288818151815260200191508051906020019080838360005b838110156107b557808201518184015260208101905061079a565b50505050905090810190601f1680156107e25780820380516001836020036101000a031916815260200191505b50848103825287818151815260200191508051906020019080838360005b8381101561081b578082015181840152602081019050610800565b50505050905090810190601f1680156108485780820380516001836020036101000a031916815260200191505b509a505050505050505050505060405180910390a15050505050565b6002602052806000526040600020600091509050806000015490806001018054600181600116156101000203166002900480601f0160208091040260200160405190810160405280929190818152602001828054600181600116156101000203166002900480156109165780601f106108eb57610100808354040283529160200191610916565b820191906000526020600020905b8154815290600101906020018083116108f957829003601f168201915b505050505090806002015490806003018054600181600116156101000203166002900480601f0160208091040260200160405190810160405280929190818152602001828054600181600116156101000203166002900480156109ba5780601f1061098f576101008083540402835291602001916109ba565b820191906000526020600020905b81548152906001019060200180831161099d57829003601f168201915b505050505090806004018054600181600116156101000203166002900480601f016020809104026020016040519081016040528092919081815260200182805460018160011615610100020316600290048015610a585780601f10610a2d57610100808354040283529160200191610a58565b820191906000526020600020905b815481529060010190602001808311610a3b57829003601f168201915b5050505050908060050160009054906101000a900473ffffffffffffffffffffffffffffffffffffffff16908060050160149054906101000a900460ff16905087565b610aa361122e565b600260008381526020019081526020016000206040518060e001604052908160008201548152602001600182018054600181600116156101000203166002900480601f016020809104026020016040519081016040528092919081815260200182805460018160011615610100020316600290048015610b645780601f10610b3957610100808354040283529160200191610b64565b820191906000526020600020905b815481529060010190602001808311610b4757829003601f168201915b5050505050815260200160028201548152602001600382018054600181600116156101000203166002900480601f016020809104026020016040519081016040528092919081815260200182805460018160011615610100020316600290048015610c105780601f10610be557610100808354040283529160200191610c10565b820191906000526020600020905b815481529060010190602001808311610bf357829003601f168201915b50505050508152602001600482018054600181600116156101000203166002900480601f016020809104026020016040519081016040528092919081815260200182805460018160011615610100020316600290048015610cb25780601f10610c8757610100808354040283529160200191610cb2565b820191906000526020600020905b815481529060010190602001808311610c9557829003601f168201915b505050505081526020016005820160009054906101000a900473ffffffffffffffffffffffffffffffffffffffff1673ffffffffffffffffffffffffffffffffffffffff1673ffffffffffffffffffffffffffffffffffffffff1681526020016005820160149054906101000a900460ff161515151581525050905060008160a00151905060008260000151118015610d515750600154826000015111155b610d5a57600080fd5b8160400151341015610d6b57600080fd5b8160c0015115610d7a57600080fd5b3373ffffffffffffffffffffffffffffffffffffffff168173ffffffffffffffffffffffffffffffffffffffff161415610db357600080fd5b338260a0019073ffffffffffffffffffffffffffffffffffffffff16908173ffffffffffffffffffffffffffffffffffffffff168152505060018260c00190151590811515815250508160026000858152602001908152602001600020600082015181600001556020820151816001019080519060200190610e369291906111ae565b50604082015181600201556060820151816003019080519060200190610e5d9291906111ae565b506080820151816004019080519060200190610e7a9291906111ae565b5060a08201518160050160006101000a81548173ffffffffffffffffffffffffffffffffffffffff021916908373ffffffffffffffffffffffffffffffffffffffff16021790555060c08201518160050160146101000a81548160ff0219169083151502179055509050508073ffffffffffffffffffffffffffffffffffffffff166108fc349081150290604051600060405180830381858888f19350505050158015610f2b573d6000803e3d6000fd5b507fd8dd864b5ecc43bb72d491b81f73c2223a34d68c8e3319e517161115352fc9c76001548360200151846040015185606001518660800151336001604051808881526020018060200187815260200180602001806020018673ffffffffffffffffffffffffffffffffffffffff1673ffffffffffffffffffffffffffffffffffffffff1681526020018515151515815260200184810384528a818151815260200191508051906020019080838360005b83811015610ff7578082015181840152602081019050610fdc565b50505050905090810190601f1680156110245780820380516001836020036101000a031916815260200191505b50848103835288818151815260200191508051906020019080838360005b8381101561105d578082015181840152602081019050611042565b50505050905090810190601f16801561108a5780820380516001836020036101000a031916815260200191505b50848103825287818151815260200191508051906020019080838360005b838110156110c35780820151818401526020810190506110a8565b50505050905090810190601f1680156110f05780820380516001836020036101000a031916815260200191505b509a505050505050505050505060405180910390a1505050565b60008054600181600116156101000203166002900480601f0160208091040260200160405190810160405280929190818152602001828054600181600116156101000203166002900480156111a05780601f10611175576101008083540402835291602001916111a0565b820191906000526020600020905b81548152906001019060200180831161118357829003601f168201915b505050505081565b60015481565b828054600181600116156101000203166002900490600052602060002090601f016020900481019282601f106111ef57805160ff191683800117855561121d565b8280016001018555821561121d579182015b8281111561121c578251825591602001919060010190611201565b5b50905061122a9190611283565b5090565b6040518060e001604052806000815260200160608152602001600081526020016060815260200160608152602001600073ffffffffffffffffffffffffffffffffffffffff1681526020016000151581525090565b6112a591905b808211156112a1576000816000905550600101611289565b5090565b9056fea265627a7a72315820ba146e4946defd103ab9d96bfc9fdb62a19a4f38acd1f75eb9217acdeda7168964736f6c63430005100032",
  "source": "pragma solidity >=0.4.21 <0.6.0;\n\ncontract GemstoneExtraction {\n    string public mineName;\n    uint public minedGemCount = 0;\n    mapping (uint => MinedGem) public minedGems;\n\n    //todo: extractionMethod enum -> select in form\n\n    struct MinedGem{\n        uint id;\n        string gemType;\n        uint price; \n        string miningLocation;\n      //Todo:  Date miningDate;\n      \n       // string pointOfProcessing;\n        string extractionMethod; //enum?\n        address payable owner;\n        bool purchased;\n    }\n\n    event GemMining(\n        uint id,\n        string gemType,\n        uint price,\n        string miningLocation,\n        string extractionMethod,\n        \n        address payable owner,\n        bool purchased\n    );\n\n    event GemPurchased(\n        uint id,\n        string gemType,\n        uint price,\n        string miningLocation,\n        string extractionMethod,\n       \n        address payable owner,\n        bool purchased\n    );\n\n    constructor() public {\n        mineName = \"afrikai\";\n    }\n\n    function gemMining(string memory _gemType, uint _price, string memory _miningLocation, string memory _extractionMethod) public {\n        minedGemCount++;\n        //todo: write the table the pointOfProcessing\n        string memory pointOfProcessing = \"mine\";\n\n        minedGems[minedGemCount] = MinedGem(minedGemCount, _gemType, _price, _miningLocation, _extractionMethod, msg.sender, false);\n\n        emit GemMining(minedGemCount, _gemType, _price, _miningLocation, _extractionMethod, msg.sender, false);\n    }\n\n    function purchaseGem(uint _id) public payable{\n        MinedGem memory _minedGem = minedGems[_id];\n        address payable _miner = _minedGem.owner;\n        require(_minedGem.id > 0 && _minedGem.id <= minedGemCount);\n        require(msg.value >= _minedGem.price);\n        require(!_minedGem.purchased);\n        require(_miner != msg.sender);\n        _minedGem.owner = msg.sender;\n        _minedGem.purchased = true;\n        minedGems[_id] = _minedGem;\n        address(_miner).transfer(msg.value);\n        emit GemPurchased(minedGemCount, _minedGem.gemType, _minedGem.price, _minedGem.miningLocation, _minedGem.extractionMethod, msg.sender, true);\n\n\n\n    }\n\n\n}",
  "sourcePath": "/home/berkeanna/folder/two/jewellery/src/contracts/GemstoneExtraction.sol",
  "compiler": {
    "name": "solc",
    "version": "0.5.16+commit.9c3226ce.Emscripten.clang"
  },
  "schemaVersion": "3.4.15",
  "updatedAt": "2023-09-23T17:59:26.308Z",
  "networkType": "ethereum",
  "devdoc": {
    "methods": {}
  },
  "userdoc": {
    "methods": {}
  }
}