{
  "contractName": "GemstoneExtraction",
  "abi": [
    {
      "inputs": [],
      "payable": false,
      "stateMutability": "nonpayable",
      "type": "constructor"
    },
    {
      "anonymous": false,
      "inputs": [
        {
          "indexed": false,
          "internalType": "uint256",
          "name": "id",
          "type": "uint256"
        },
        {
          "indexed": false,
          "internalType": "string",
          "name": "gemType",
          "type": "string"
        },
        {
          "indexed": false,
          "internalType": "uint256",
          "name": "price",
          "type": "uint256"
        },
        {
          "indexed": false,
          "internalType": "string",
          "name": "miningLocation",
          "type": "string"
        },
        {
          "indexed": false,
          "internalType": "string",
          "name": "extractionMethod",
          "type": "string"
        },
        {
          "indexed": false,
          "internalType": "address payable",
          "name": "owner",
          "type": "address"
        },
        {
          "indexed": false,
          "internalType": "int256",
          "name": "purchased",
          "type": "int256"
        }
      ],
      "name": "GemMining",
      "type": "event"
    },
    {
      "anonymous": false,
      "inputs": [
        {
          "indexed": false,
          "internalType": "uint256",
          "name": "id",
          "type": "uint256"
        },
        {
          "indexed": false,
          "internalType": "string",
          "name": "gemType",
          "type": "string"
        },
        {
          "indexed": false,
          "internalType": "uint256",
          "name": "price",
          "type": "uint256"
        },
        {
          "indexed": false,
          "internalType": "string",
          "name": "miningLocation",
          "type": "string"
        },
        {
          "indexed": false,
          "internalType": "string",
          "name": "extractionMethod",
          "type": "string"
        },
        {
          "indexed": false,
          "internalType": "address payable",
          "name": "owner",
          "type": "address"
        },
        {
          "indexed": false,
          "internalType": "int256",
          "name": "purchased",
          "type": "int256"
        }
      ],
      "name": "GemPurchased",
      "type": "event"
    },
    {
      "constant": true,
      "inputs": [],
      "name": "mineName",
      "outputs": [
        {
          "internalType": "string",
          "name": "",
          "type": "string"
        }
      ],
      "payable": false,
      "stateMutability": "view",
      "type": "function"
    },
    {
      "constant": true,
      "inputs": [],
      "name": "minedGemCount",
      "outputs": [
        {
          "internalType": "uint256",
          "name": "",
          "type": "uint256"
        }
      ],
      "payable": false,
      "stateMutability": "view",
      "type": "function"
    },
    {
      "constant": true,
      "inputs": [
        {
          "internalType": "uint256",
          "name": "",
          "type": "uint256"
        }
      ],
      "name": "minedGems",
      "outputs": [
        {
          "internalType": "uint256",
          "name": "id",
          "type": "uint256"
        },
        {
          "internalType": "string",
          "name": "gemType",
          "type": "string"
        },
        {
          "internalType": "uint256",
          "name": "price",
          "type": "uint256"
        },
        {
          "internalType": "string",
          "name": "miningLocation",
          "type": "string"
        },
        {
          "internalType": "string",
          "name": "extractionMethod",
          "type": "string"
        },
        {
          "internalType": "address payable",
          "name": "owner",
          "type": "address"
        },
        {
          "internalType": "int256",
          "name": "purchased",
          "type": "int256"
        }
      ],
      "payable": false,
      "stateMutability": "view",
      "type": "function"
    },
    {
      "constant": false,
      "inputs": [
        {
          "internalType": "string",
          "name": "_gemType",
          "type": "string"
        },
        {
          "internalType": "uint256",
          "name": "_price",
          "type": "uint256"
        },
        {
          "internalType": "string",
          "name": "_miningLocation",
          "type": "string"
        },
        {
          "internalType": "string",
          "name": "_extractionMethod",
          "type": "string"
        }
      ],
      "name": "gemMining",
      "outputs": [],
      "payable": false,
      "stateMutability": "nonpayable",
      "type": "function"
    },
    {
      "constant": false,
      "inputs": [
        {
          "internalType": "uint256",
          "name": "_id",
          "type": "uint256"
        }
      ],
      "name": "purchaseGem",
      "outputs": [],
      "payable": true,
      "stateMutability": "payable",
      "type": "function"
    }
  ],
  "bytecode": "0x608060405260006001553480156200001657600080fd5b506040518060400160405280600781526020017f616672696b61690000000000000000000000000000000000000000000000000081525060009080519060200190620000649291906200006b565b506200011a565b828054600181600116156101000203166002900490600052602060002090601f016020900481019282601f10620000ae57805160ff1916838001178555620000df565b82800160010185558215620000df579182015b82811115620000de578251825591602001919060010190620000c1565b5b509050620000ee9190620000f2565b5090565b6200011791905b8082111562000113576000816000905550600101620000f9565b5090565b90565b61127f806200012a6000396000f3fe60806040526004361061004a5760003560e01c80630733a8cc1461004f5780631e166c4e1461024f5780639b8efcd914610423578063c8a9421514610451578063d0cfe11e146104e1575b600080fd5b34801561005b57600080fd5b5061024d6004803603608081101561007257600080fd5b810190808035906020019064010000000081111561008f57600080fd5b8201836020820111156100a157600080fd5b803590602001918460018302840111640100000000831117156100c357600080fd5b91908080601f016020809104026020016040519081016040528093929190818152602001838380828437600081840152601f19601f820116905080830192505050505050509192919290803590602001909291908035906020019064010000000081111561013057600080fd5b82018360208201111561014257600080fd5b8035906020019184600183028401116401000000008311171561016457600080fd5b91908080601f016020809104026020016040519081016040528093929190818152602001838380828437600081840152601f19601f820116905080830192505050505050509192919290803590602001906401000000008111156101c757600080fd5b8201836020820111156101d957600080fd5b803590602001918460018302840111640100000000831117156101fb57600080fd5b91908080601f016020809104026020016040519081016040528093929190818152602001838380828437600081840152601f19601f82011690508083019250505050505050919291929050505061050c565b005b34801561025b57600080fd5b506102886004803603602081101561027257600080fd5b8101908080359060200190929190505050610844565b604051808881526020018060200187815260200180602001806020018673ffffffffffffffffffffffffffffffffffffffff1673ffffffffffffffffffffffffffffffffffffffff16815260200185815260200184810384528a818151815260200191508051906020019080838360005b838110156103145780820151818401526020810190506102f9565b50505050905090810190601f1680156103415780820380516001836020036101000a031916815260200191505b50848103835288818151815260200191508051906020019080838360005b8381101561037a57808201518184015260208101905061035f565b50505050905090810190601f1680156103a75780820380516001836020036101000a031916815260200191505b50848103825287818151815260200191508051906020019080838360005b838110156103e05780820151818401526020810190506103c5565b50505050905090810190601f16801561040d5780820380516001836020036101000a031916815260200191505b509a505050505050505050505060405180910390f35b61044f6004803603602081101561043957600080fd5b8101908080359060200190929190505050610a6e565b005b34801561045d57600080fd5b506104666110ae565b6040518080602001828103825283818151815260200191508051906020019080838360005b838110156104a657808201518184015260208101905061048b565b50505050905090810190601f1680156104d35780820380516001836020036101000a031916815260200191505b509250505060405180910390f35b3480156104ed57600080fd5b506104f661114c565b6040518082815260200191505060405180910390f35b60016000815480929190600101919050555060606040518060400160405280600481526020017f6d696e650000000000000000000000000000000000000000000000000000000081525090506040518060e0016040528060015481526020018681526020018581526020018481526020018381526020013373ffffffffffffffffffffffffffffffffffffffff16815260200160008152506002600060015481526020019081526020016000206000820151816000015560208201518160010190805190602001906105df929190611152565b50604082015181600201556060820151816003019080519060200190610606929190611152565b506080820151816004019080519060200190610623929190611152565b5060a08201518160050160006101000a81548173ffffffffffffffffffffffffffffffffffffffff021916908373ffffffffffffffffffffffffffffffffffffffff16021790555060c082015181600601559050507fc26ee75b0c88f1ff6638881fe990f047af7afaeec951d87dcf6a5e5cb03a692b60015486868686336000604051808881526020018060200187815260200180602001806020018673ffffffffffffffffffffffffffffffffffffffff1673ffffffffffffffffffffffffffffffffffffffff16815260200185815260200184810384528a818151815260200191508051906020019080838360005b8381101561072f578082015181840152602081019050610714565b50505050905090810190601f16801561075c5780820380516001836020036101000a031916815260200191505b50848103835288818151815260200191508051906020019080838360005b8381101561079557808201518184015260208101905061077a565b50505050905090810190601f1680156107c25780820380516001836020036101000a031916815260200191505b50848103825287818151815260200191508051906020019080838360005b838110156107fb5780820151818401526020810190506107e0565b50505050905090810190601f1680156108285780820380516001836020036101000a031916815260200191505b509a505050505050505050505060405180910390a15050505050565b6002602052806000526040600020600091509050806000015490806001018054600181600116156101000203166002900480601f0160208091040260200160405190810160405280929190818152602001828054600181600116156101000203166002900480156108f65780601f106108cb576101008083540402835291602001916108f6565b820191906000526020600020905b8154815290600101906020018083116108d957829003601f168201915b505050505090806002015490806003018054600181600116156101000203166002900480601f01602080910402602001604051908101604052809291908181526020018280546001816001161561010002031660029004801561099a5780601f1061096f5761010080835404028352916020019161099a565b820191906000526020600020905b81548152906001019060200180831161097d57829003601f168201915b505050505090806004018054600181600116156101000203166002900480601f016020809104026020016040519081016040528092919081815260200182805460018160011615610100020316600290048015610a385780601f10610a0d57610100808354040283529160200191610a38565b820191906000526020600020905b815481529060010190602001808311610a1b57829003601f168201915b5050505050908060050160009054906101000a900473ffffffffffffffffffffffffffffffffffffffff16908060060154905087565b610a766111d2565b600260008381526020019081526020016000206040518060e001604052908160008201548152602001600182018054600181600116156101000203166002900480601f016020809104026020016040519081016040528092919081815260200182805460018160011615610100020316600290048015610b375780601f10610b0c57610100808354040283529160200191610b37565b820191906000526020600020905b815481529060010190602001808311610b1a57829003601f168201915b5050505050815260200160028201548152602001600382018054600181600116156101000203166002900480601f016020809104026020016040519081016040528092919081815260200182805460018160011615610100020316600290048015610be35780601f10610bb857610100808354040283529160200191610be3565b820191906000526020600020905b815481529060010190602001808311610bc657829003601f168201915b50505050508152602001600482018054600181600116156101000203166002900480601f016020809104026020016040519081016040528092919081815260200182805460018160011615610100020316600290048015610c855780601f10610c5a57610100808354040283529160200191610c85565b820191906000526020600020905b815481529060010190602001808311610c6857829003601f168201915b505050505081526020016005820160009054906101000a900473ffffffffffffffffffffffffffffffffffffffff1673ffffffffffffffffffffffffffffffffffffffff1673ffffffffffffffffffffffffffffffffffffffff168152602001600682015481525050905060008160a00151905060008260000151118015610d135750600154826000015111155b610d1c57600080fd5b8160400151341015610d2d57600080fd5b60008260c0015114610d3e57600080fd5b3373ffffffffffffffffffffffffffffffffffffffff168173ffffffffffffffffffffffffffffffffffffffff161415610d7757600080fd5b338260a0019073ffffffffffffffffffffffffffffffffffffffff16908173ffffffffffffffffffffffffffffffffffffffff168152505060018260c00181815250508160026000858152602001908152602001600020600082015181600001556020820151816001019080519060200190610df4929190611152565b50604082015181600201556060820151816003019080519060200190610e1b929190611152565b506080820151816004019080519060200190610e38929190611152565b5060a08201518160050160006101000a81548173ffffffffffffffffffffffffffffffffffffffff021916908373ffffffffffffffffffffffffffffffffffffffff16021790555060c082015181600601559050508073ffffffffffffffffffffffffffffffffffffffff166108fc349081150290604051600060405180830381858888f19350505050158015610ed3573d6000803e3d6000fd5b507f63b1b7d7e40e4f5786abe86571e7af9bc01430b8fb9b28c666d809fecb3e3afd6001548360200151846040015185606001518660800151336001604051808881526020018060200187815260200180602001806020018673ffffffffffffffffffffffffffffffffffffffff1673ffffffffffffffffffffffffffffffffffffffff16815260200185815260200184810384528a818151815260200191508051906020019080838360005b83811015610f9b578082015181840152602081019050610f80565b50505050905090810190601f168015610fc85780820380516001836020036101000a031916815260200191505b50848103835288818151815260200191508051906020019080838360005b83811015611001578082015181840152602081019050610fe6565b50505050905090810190601f16801561102e5780820380516001836020036101000a031916815260200191505b50848103825287818151815260200191508051906020019080838360005b8381101561106757808201518184015260208101905061104c565b50505050905090810190601f1680156110945780820380516001836020036101000a031916815260200191505b509a505050505050505050505060405180910390a1505050565b60008054600181600116156101000203166002900480601f0160208091040260200160405190810160405280929190818152602001828054600181600116156101000203166002900480156111445780601f1061111957610100808354040283529160200191611144565b820191906000526020600020905b81548152906001019060200180831161112757829003601f168201915b505050505081565b60015481565b828054600181600116156101000203166002900490600052602060002090601f016020900481019282601f1061119357805160ff19168380011785556111c1565b828001600101855582156111c1579182015b828111156111c05782518255916020019190600101906111a5565b5b5090506111ce9190611225565b5090565b6040518060e001604052806000815260200160608152602001600081526020016060815260200160608152602001600073ffffffffffffffffffffffffffffffffffffffff168152602001600081525090565b61124791905b8082111561124357600081600090555060010161122b565b5090565b9056fea265627a7a723158201148e7dc14e73c5e81a271cf56bfd2cc2367dff68c219dc51b2c1ca78d06951e64736f6c63430005100032",
  "source": "pragma solidity >=0.4.21 <0.6.0;\n\ncontract GemstoneExtraction {\n    string public mineName;\n    uint public minedGemCount = 0;\n    mapping (uint => MinedGem) public minedGems;\n\n    //todo: extractionMethod enum -> select in form\n\n    struct MinedGem{\n        uint id;\n        string gemType;\n        uint price; \n        string miningLocation;\n      //Todo:  Date miningDate;\n      \n       // string pointOfProcessing;\n        string extractionMethod; //enum?\n        address payable owner;\n        int purchased;\n    }\n\n    event GemMining(\n        uint id,\n        string gemType,\n        uint price,\n        string miningLocation,\n        string extractionMethod,\n        \n        address payable owner,\n        int purchased\n    );\n\n    event GemPurchased(\n        uint id,\n        string gemType,\n        uint price,\n        string miningLocation,\n        string extractionMethod,\n       \n        address payable owner,\n        int purchased\n    );\n\n    constructor() public {\n        mineName = \"afrikai\";\n    }\n\n    function gemMining(string memory _gemType, uint _price, string memory _miningLocation, string memory _extractionMethod) public {\n        minedGemCount++;\n        //todo: write the table the pointOfProcessing\n        string memory pointOfProcessing = \"mine\";\n\n        minedGems[minedGemCount] = MinedGem(minedGemCount, _gemType, _price, _miningLocation, _extractionMethod, msg.sender, 0);\n\n        emit GemMining(minedGemCount, _gemType, _price, _miningLocation, _extractionMethod, msg.sender, 0);\n    }\n\n    function purchaseGem(uint _id) public payable{\n        MinedGem memory _minedGem = minedGems[_id];\n        address payable _miner = _minedGem.owner;\n        require(_minedGem.id > 0 && _minedGem.id <= minedGemCount);\n        require(msg.value >= _minedGem.price);\n        require(_minedGem.purchased == 0);\n        require(_miner != msg.sender);\n        _minedGem.owner = msg.sender;\n        _minedGem.purchased = 1;\n        minedGems[_id] = _minedGem;\n        address(_miner).transfer(msg.value);\n        emit GemPurchased(minedGemCount, _minedGem.gemType, _minedGem.price, _minedGem.miningLocation, _minedGem.extractionMethod, msg.sender, 1);\n    }\n\n  /*\n function sellGem(uint _id) public {\n        MinedGem storage _minedGem = minedGems[_id];\n        require(_minedGem.id > 0 && _minedGem.id <= minedGemCount);\n        require(_minedGem.owner == msg.sender);\n        require(_minedGem.purchased == 1);\n        msg.sender.transfer(_minedGem.price);\n        require(address(this).balance >= _minedGem.price, \"Contract balance is insufficient\");\n\n        _minedGem.purchased = 0;\n        minedGems[_id] = _minedGem;\n\n        emit GemPurchased(_minedGem.id, _minedGem.gemType, _minedGem.price, _minedGem.miningLocation, _minedGem.extractionMethod, msg.sender, 0);\n    }\n*/\n}",
  "sourcePath": "/home/berkeanna/folder/two/jewellery/src/contracts/GemstoneExtraction.sol",
  "compiler": {
    "name": "solc",
    "version": "0.5.16+commit.9c3226ce.Emscripten.clang"
  },
  "schemaVersion": "3.4.16",
  "updatedAt": "2023-11-06T18:08:56.583Z",
  "networkType": "ethereum",
  "devdoc": {
    "methods": {}
  },
  "userdoc": {
    "methods": {}
  }
}